{
  "contractName": "Betting",
  "abi": [
    {
      "constant": true,
      "inputs": [
        {
          "name": "",
          "type": "address"
        }
      ],
      "name": "playerInfo",
      "outputs": [
        {
          "name": "amountBet",
          "type": "uint256"
        },
        {
          "name": "teamSelected",
          "type": "uint16"
        }
      ],
      "payable": false,
      "stateMutability": "view",
      "type": "function"
    },
    {
      "constant": true,
      "inputs": [],
      "name": "totalBetsTwo",
      "outputs": [
        {
          "name": "",
          "type": "uint256"
        }
      ],
      "payable": false,
      "stateMutability": "view",
      "type": "function"
    },
    {
      "constant": true,
      "inputs": [],
      "name": "totalBetsOne",
      "outputs": [
        {
          "name": "",
          "type": "uint256"
        }
      ],
      "payable": false,
      "stateMutability": "view",
      "type": "function"
    },
    {
      "constant": true,
      "inputs": [],
      "name": "owner",
      "outputs": [
        {
          "name": "",
          "type": "address"
        }
      ],
      "payable": false,
      "stateMutability": "view",
      "type": "function"
    },
    {
      "constant": true,
      "inputs": [],
      "name": "minimumBet",
      "outputs": [
        {
          "name": "",
          "type": "uint256"
        }
      ],
      "payable": false,
      "stateMutability": "view",
      "type": "function"
    },
    {
      "constant": true,
      "inputs": [
        {
          "name": "",
          "type": "uint256"
        }
      ],
      "name": "players",
      "outputs": [
        {
          "name": "",
          "type": "address"
        }
      ],
      "payable": false,
      "stateMutability": "view",
      "type": "function"
    },
    {
      "inputs": [],
      "payable": false,
      "stateMutability": "nonpayable",
      "type": "constructor"
    },
    {
      "payable": true,
      "stateMutability": "payable",
      "type": "fallback"
    },
    {
      "constant": false,
      "inputs": [],
      "name": "kill",
      "outputs": [],
      "payable": false,
      "stateMutability": "nonpayable",
      "type": "function"
    },
    {
      "constant": true,
      "inputs": [
        {
          "name": "player",
          "type": "address"
        }
      ],
      "name": "checkPlayerExists",
      "outputs": [
        {
          "name": "",
          "type": "bool"
        }
      ],
      "payable": false,
      "stateMutability": "view",
      "type": "function"
    },
    {
      "constant": false,
      "inputs": [
        {
          "name": "_receiver",
          "type": "address"
        }
      ],
      "name": "deposit",
      "outputs": [],
      "payable": true,
      "stateMutability": "payable",
      "type": "function"
    },
    {
      "constant": false,
      "inputs": [
        {
          "name": "_teamSelected",
          "type": "uint8"
        }
      ],
      "name": "bet",
      "outputs": [],
      "payable": true,
      "stateMutability": "payable",
      "type": "function"
    },
    {
      "constant": false,
      "inputs": [
        {
          "name": "teamWinner",
          "type": "uint16"
        }
      ],
      "name": "distributePrizes",
      "outputs": [],
      "payable": false,
      "stateMutability": "nonpayable",
      "type": "function"
    },
    {
      "constant": true,
      "inputs": [],
      "name": "AmountOne",
      "outputs": [
        {
          "name": "",
          "type": "uint256"
        }
      ],
      "payable": false,
      "stateMutability": "view",
      "type": "function"
    },
    {
      "constant": true,
      "inputs": [],
      "name": "AmountTwo",
      "outputs": [
        {
          "name": "",
          "type": "uint256"
        }
      ],
      "payable": false,
      "stateMutability": "view",
      "type": "function"
    }
  ],
  "bytecode": "0x608060405234801561001057600080fd5b50336000806101000a81548173ffffffffffffffffffffffffffffffffffffffff021916908373ffffffffffffffffffffffffffffffffffffffff160217905550655af3107a4000600181905550610aef8061006d6000396000f3006080604052600436106100c5576000357c0100000000000000000000000000000000000000000000000000000000900463ffffffff1680634081d916146100c757806341c0e1b5146101225780634996d51d146101395780634b114691146101645780635bf6b19f146101ca57806365733592146101f55780637904f688146102205780638afadeb5146102515780638da5cb5b1461027c578063c38a8afd146102d3578063d0821b0e146102fe578063f340fa0114610321578063f71d96cb14610357575b005b3480156100d357600080fd5b50610108600480360381019080803573ffffffffffffffffffffffffffffffffffffffff1690602001909291905050506103c4565b604051808215151515815260200191505060405180910390f35b34801561012e57600080fd5b50610137610467565b005b34801561014557600080fd5b5061014e6104f8565b6040518082815260200191505060405180910390f35b34801561017057600080fd5b506101a5600480360381019080803573ffffffffffffffffffffffffffffffffffffffff169060200190929190505050610502565b604051808381526020018261ffff1661ffff1681526020019250505060405180910390f35b3480156101d657600080fd5b506101df610534565b6040518082815260200191505060405180910390f35b34801561020157600080fd5b5061020a61053a565b6040518082815260200191505060405180910390f35b34801561022c57600080fd5b5061024f600480360381019080803561ffff169060200190929190505050610544565b005b34801561025d57600080fd5b50610266610864565b6040518082815260200191505060405180910390f35b34801561028857600080fd5b5061029161086a565b604051808273ffffffffffffffffffffffffffffffffffffffff1673ffffffffffffffffffffffffffffffffffffffff16815260200191505060405180910390f35b3480156102df57600080fd5b506102e861088f565b6040518082815260200191505060405180910390f35b61031f600480360381019080803560ff169060200190929190505050610895565b005b610355600480360381019080803573ffffffffffffffffffffffffffffffffffffffff1690602001909291905050506109fd565b005b34801561036357600080fd5b5061038260048036038101908080359060200190929190505050610a0f565b604051808273ffffffffffffffffffffffffffffffffffffffff1673ffffffffffffffffffffffffffffffffffffffff16815260200191505060405180910390f35b600080600090505b60048054905081101561045c578273ffffffffffffffffffffffffffffffffffffffff166004828154811015156103ff57fe5b9060005260206000200160009054906101000a900473ffffffffffffffffffffffffffffffffffffffff1673ffffffffffffffffffffffffffffffffffffffff16141561044f5760019150610461565b80806001019150506103cc565b600091505b50919050565b6000809054906101000a900473ffffffffffffffffffffffffffffffffffffffff1673ffffffffffffffffffffffffffffffffffffffff163373ffffffffffffffffffffffffffffffffffffffff1614156104f6576000809054906101000a900473ffffffffffffffffffffffffffffffffffffffff1673ffffffffffffffffffffffffffffffffffffffff16ff5b565b6000600254905090565b60056020528060005260406000206000915090508060000154908060010160009054906101000a900461ffff16905082565b60035481565b6000600354905090565b61054c610a4d565b600080600080600080600080600097506000965060009550600094505b60048054905085101561066f5760048581548110151561058557fe5b9060005260206000200160009054906101000a900473ffffffffffffffffffffffffffffffffffffffff1693508961ffff16600560008673ffffffffffffffffffffffffffffffffffffffff1673ffffffffffffffffffffffffffffffffffffffff16815260200190815260200160002060010160009054906101000a900461ffff1661ffff161415610662578389896103e88110151561062257fe5b602002019073ffffffffffffffffffffffffffffffffffffffff16908173ffffffffffffffffffffffffffffffffffffffff168152505087806001019850505b8480600101955050610569565b60018a61ffff16141561068b5760035496506002549550610696565b600254965060035495505b600092505b878310156107d157600073ffffffffffffffffffffffffffffffffffffffff1689846103e8811015156106ca57fe5b602002015173ffffffffffffffffffffffffffffffffffffffff161415156107035788836103e8811015156106fb57fe5b602002015191505b600560008373ffffffffffffffffffffffffffffffffffffffff1673ffffffffffffffffffffffffffffffffffffffff16815260200190815260200160002060000154905088836103e88110151561075757fe5b602002015173ffffffffffffffffffffffffffffffffffffffff166108fc612710886127108b0281151561078757fe5b0461271001840281151561079757fe5b049081150290604051600060405180830381858888f193505050501580156107c3573d6000803e3d6000fd5b50828060010193505061069b565b600560008573ffffffffffffffffffffffffffffffffffffffff1673ffffffffffffffffffffffffffffffffffffffff1681526020019081526020016000206000808201600090556001820160006101000a81549061ffff02191690555050600060048161083f9190610a72565b5060009650600095506000600281905550600060038190555050505050505050505050565b60025481565b6000809054906101000a900473ffffffffffffffffffffffffffffffffffffffff1681565b60015481565b61089e336103c4565b1515156108aa57600080fd5b60015434101515156108bb57600080fd5b34600560003373ffffffffffffffffffffffffffffffffffffffff1673ffffffffffffffffffffffffffffffffffffffff168152602001908152602001600020600001819055508060ff16600560003373ffffffffffffffffffffffffffffffffffffffff1673ffffffffffffffffffffffffffffffffffffffff16815260200190815260200160002060010160006101000a81548161ffff021916908361ffff16021790555060043390806001815401808255809150509060018203906000526020600020016000909192909190916101000a81548173ffffffffffffffffffffffffffffffffffffffff021916908373ffffffffffffffffffffffffffffffffffffffff1602179055505060018160ff1614156109e957346002600082825401925050819055506109fa565b346003600082825401925050819055505b50565b600034111515610a0c57600080fd5b50565b600481815481101515610a1e57fe5b906000526020600020016000915054906101000a900473ffffffffffffffffffffffffffffffffffffffff1681565b617d00604051908101604052806103e890602082028038833980820191505090505090565b815481835581811115610a9957818360005260206000209182019101610a989190610a9e565b5b505050565b610ac091905b80821115610abc576000816000905550600101610aa4565b5090565b905600a165627a7a723058205cc2ef18258fea8742b6148c675a1fdbd49dce1c3687d9ccff8e27cc20b1b7180029",
  "source": "pragma solidity ^ 0.4.18;\r\n\r\ncontract Betting {\r\n    address public owner;\r\n    uint256 public minimumBet;\r\n    uint256 public totalBetsOne;\r\n    uint256 public totalBetsTwo;\r\n    address[] public players;\r\n    struct Player {\r\n        uint256 amountBet;\r\n        uint16 teamSelected;\r\n    }\r\n    // The address of the player and => the user info\r\n    mapping(address => Player) public playerInfo;\r\n\r\n    function () public payable {}\r\n\r\n    constructor() public {\r\n        owner = msg.sender;\r\n        minimumBet = 100000000000000;\r\n    }\r\n\r\n    function kill() public {\r\n        if (msg.sender == owner) selfdestruct(owner);\r\n    }\r\n\r\n    function checkPlayerExists(address player) public view returns(bool) {\r\n        for (uint256 i = 0; i < players.length; i++) {\r\n            if (players[i] == player) return true;\r\n        }\r\n        return false;\r\n    }\r\n\r\n    function deposit(address _receiver) external payable {\r\n        require(msg.value > 0);\r\n    }\r\n\r\n    function bet(uint8 _teamSelected) public payable {\r\n        //The first require is used to check if the player already exist\r\n        require(!checkPlayerExists(msg.sender));\r\n        //The second one is used to see if the value sended by the player is\r\n        //Higher than the minimum value\r\n        require(msg.value >= minimumBet);\r\n\r\n        //We set the player informations : amount of the bet and selected team\r\n        playerInfo[msg.sender].amountBet = msg.value;\r\n        playerInfo[msg.sender].teamSelected = _teamSelected;\r\n\r\n        //then we add the address of the player to the players array\r\n        players.push(msg.sender);\r\n\r\n        //at the end, we increment the stakes of the team selected with the player bet\r\n        if (_teamSelected == 1) {\r\n            totalBetsOne += msg.value;\r\n        } else {\r\n            totalBetsTwo += msg.value;\r\n        }\r\n    }\r\n\r\n    // Generates a number between 1 and 10 that will be the winner\r\n    function distributePrizes(uint16 teamWinner) public {\r\n        address[1000] memory winners;\r\n        //We have to create a temporary in memory array with fixed size\r\n        //Let's choose 1000\r\n        uint256 count = 0; // This is the count for the array of winners\r\n        uint256 LoserBet = 0; //This will take the value of all losers bet\r\n        uint256 WinnerBet = 0; //This will take the value of all winners bet\r\n\r\n        //We loop through the player array to check who selected the winner team\r\n        for (uint256 i = 0; i < players.length; i++) {\r\n            address playerAddress = players[i];\r\n\r\n            //If the player selected the winner team\r\n            //We add his address to the winners array\r\n            if (playerInfo[playerAddress].teamSelected == teamWinner) {\r\n                winners[count] = playerAddress;\r\n                count++;\r\n            }\r\n        }\r\n\r\n        //We define which bet sum is the Loser one and which one is the winner\r\n        if (teamWinner == 1) {\r\n            LoserBet = totalBetsTwo;\r\n            WinnerBet = totalBetsOne;\r\n        } else {\r\n            LoserBet = totalBetsOne;\r\n            WinnerBet = totalBetsTwo;\r\n        }\r\n\r\n\r\n        //We loop through the array of winners, to give ethers to the winners\r\n        for (uint256 j = 0; j < count; j++) {\r\n            // Check that the address in this fixed array is not empty\r\n            if (winners[j] != address(0))\r\n                address add = winners[j];\r\n            uint256 amtBet = playerInfo[add].amountBet;\r\n            //Transfer the money to the user\r\n            winners[j].transfer((amtBet * (10000 + (LoserBet * 10000 / WinnerBet))) / 10000);\r\n        }\r\n        delete playerInfo[playerAddress]; // Delete all the players\r\n        players.length = 0; // Delete all the players array\r\n        LoserBet = 0; //reinitialize the bets\r\n        WinnerBet = 0;\r\n        totalBetsOne = 0;\r\n        totalBetsTwo = 0;\r\n    }\r\n\r\n    function AmountOne() public view returns(uint256) {\r\n        return totalBetsOne;\r\n    }\r\n\r\n    function AmountTwo() public view returns(uint256) {\r\n        return totalBetsTwo;\r\n    }\r\n}",
  "sourcePath": "C:\\Users\\ctufaro_admin\\My Projects\\EtherContracts\\contracts\\Betting.sol",
  "compiler": {
    "name": "solc",
    "version": "0.4.24+commit.e67f0147.Emscripten.clang"
  },
  "schemaVersion": "2.0.1",
  "updatedAt": "2018-11-21T16:04:11.413Z"
}